:1000000012C2000041C200003FC200003DC2000019
:100010003BC2000039C2000037C2000035C20000F8
:1000200033C200000C94290B0C942B0C0C94040C80
:100030002BC2000029C2000027C2000025C2000018
:1000400023C2000021C200001FC200001DC2000028
:100050001BC2000019C2000017C200000C94DF0A86
:1000600013C200000C94A90A0C94800A0DC200006F
:100070000BC2000009C2000007C2000005C2000058
:1000800003C2000001C20000FFC10000FDC100006A
:10009000FBC10000F9C10000F7C10000F5C100007C
:1000A000F3C10000F1C10000EFC10000EDC100008C
:1000B000EBC10000E9C10000E7C10000E5C100009C
:1000C000E3C10000E1C10000DFC10000DDC10000AC
:1000D000DBC10000D9C100000C944A0A0C94210A2B
:1000E000D3C1000000407A10F35A00A0724E1809E4
:1000F0000010A5D4E80000E87648170000E40B548F
:10010000020000CA9A3B000000E1F505000080965D
:100110009800000040420F000000A086010000008F
:10012000102700000000E803000000006400000049
:1001300000000A00000000000100000000002C7612
:10014000D888DC674F0823DFC1DFAE59E1B1B7962D
:10015000E5E3E453C63AE651997696E8E6C284268A
:10016000EB898C9B62ED407C6FFCEFBC9C9F40F266
:10017000BAA56FA5F490055A2AF75C936B6CF967E2
:100180006DC11BFCE0E40D47FEF520E6B500D0EDA7
:10019000902E0300943577050080841E080000200F
:1001A0004E0A000000C80C333333330F986E1283AD
:1001B0001141EF8D2114893BE65516CFFEE6DB1881
:1001C000D1844B381BF77C1D901DA4BBE424203246
:1001D00084725E228100C9F124ECA1E53D27000074
:1001E00020002300260029002C002F0032000001EF
:1001F000000003010601090100002100240027007E
:100200002A002D0030003300010100000401070125
:100210000A0100002200250028002B002E003100DA
:10022000340002010000050108010B010505050568
:10023000070508080808020202020A0A080804045E
:10024000040401010101010101010303030303038C
:100250000303040707070C0C0C0C0C0C0C0C02021B
:10026000020206060606060606060B0B0B0B0B0B18
:100270000B0B0102102020080810204010204080A5
:10028000020102010804020101020408102040805A
:1002900080402010080402018004020180402010E8
:1002A0000804020108040201010204081020408031
:1002B000010204081020408000000A0B02090C0D06
:1002C0000E08070304010000000000000000000009
:1002D000000000000000000000000000000000001E
:1002E00000000000121110000000000000000000DB
:1002F000000000000000000000000000000053614A
:100300006C69656E646F206465204D6F646F204179
:100310005400667265654D656D6F72792853616C26
:10032000654154293D200053616C69656E646F20FE
:100330006465204D6F646F20415400436F6E746597
:100340006E69646F206465206C6120454550524F92
:100350004D3A00486563686F2C206E6F206F6C7695
:10036000696465207265696E6963696172004F4BEB
:1003700000456E7472616E646F2061204D6F646F12
:100380002041540053652072656369626520636F84
:100390006E73756C74612064657364652055495093
:1003A0002C207365207472616E736D6974656E20A4
:1003B0006C6F73206461746F732053444931322E23
:1003C0000041637475616C697A616E646F20646169
:1003D000746F732053444931322E2E2E00536F6CAC
:1003E00069636974616E746F206461746F73205304
:1003F000444931323A200044657364652073656E68
:10040000736F722053444931323A2000496E696358
:1004100069616E646F206D6564696369C3B36E2E34
:100420000000520C621211241FBECFEFD1E2DEBFDA
:10043000CDBF00E00CBF12E0A0E0B2E0E0ECF2E3E0
:1004400000E00BBF02C007900D92A83AB107D9F7A0
:1004500024E0A8EAB2E001C01D92A93EB207E1F78C
:1004600012E0C2E1D2E000E006C021970109802F2E
:10047000FE010E943E18C131D10780E00807A9F7AC
:100480000E94C50C0C944F19BBCD0895AF92BF923A
:10049000CF92DF92EF92FF920F931F93CF93DF9350
:1004A0006C017B018B01040F151FEB015E01AE187F
:1004B000BF08C017D10759F06991D601ED91FC91A1
:1004C0000190F081E02DC6011995892B79F7C501BE
:1004D000DF91CF911F910F91FF90EF90DF90CF9020
:1004E000BF90AF900895FC01448155816081718176
:1004F0008CE294E0CBCFFC01538D448D252F30E06E
:10050000842F90E0821B930B541710F0CF96089520
:1005100001970895FC01918D828D981761F0A28D4D
:10052000AE0FBF2FB11D5D968C91928D9F5F9F7313
:10053000928F90E008958FEF9FEF0895FC01918DC9
:10054000828D981731F0828DE80FF11D858D90E036
:1005500008958FEF9FEF0895FC01918D228D892FD3
:1005600090E0805C9F4F821B91098F7399270895BB
:100570008FE893E0F1DF21E0892B09F420E0822F5E
:1005800008958CE294E0E8DF21E0892B09F420E073
:10059000822F0895FC01A48DA80FB92FB11DA35A75
:1005A000BF4F2C91848D90E001968F739927848F93
:1005B000A689B7892C93A089B1898C9183708064B6
:1005C0008C93938D848D981306C00288F389E02D57
:1005D00080818F7D80830895EF92FF920F931F9308
:1005E000CF93DF93EC0181E0888F9B8D8C8D9813E6
:1005F0001AC0E889F989808185FF15C09FB7F894F2
:10060000EE89FF896083E889F9898081837080643D
:1006100080839FBF81E090E0DF91CF911F910F9188
:10062000FF90EF900895F62E0B8D10E00F5F1F4F97
:100630000F731127E02E8C8D8E110BC00FB607FCA7
:10064000FACFE889F989808185FFF5CFCE01A2DF55
:10065000F2CFEB8DEC0FFD2FF11DE35AFF4FF0822F
:100660009FB7F8940B8FEA89FB8980818062D0CF95
:100670000F931F93CF93DF938C01D0E0C0E0F8017C
:10068000EC0FFD1F6491662339F08CE294E0A4DF47
:10069000892B11F02196F3CFCE01DF91CF911F91DD
:1006A0000F910895CF93DF93EC01888D8823B1F0EB
:1006B000AA89BB89E889F9898C9185FD03C080816D
:1006C00086FD0CC00FB607FCF7CF8C9185FFF2CFEB
:1006D000808185FFEDCFCE015DDFEACFDF91CF9145
:1006E000089580E090E0892B21F04BDF81110E947A
:1006F000000080E090E0892B49F080E090E0892BB9
:1007000029F00E94000081110E94000080E090E02A
:10071000892B49F080E090E0892B29F00E940000AD
:1007200081110E94000080E090E0892B21F020DF01
:1007300081110C94000008958150823108F05AC054
:10074000E82FF0E08827E855FC4F8F4F0C943E18B7
:10075000C803CC03BA03C003C403FA03CF03D50311
:10076000D903DF03E303E703ED03F103FA03F50322
:10077000FB03FF03809180008F77809380000895B2
:10078000809180008F7DF9CF80918000877FF5CFA9
:1007900084B58F7784BD089584B58F7DFBCF80911C
:1007A000B0008F778093B00008958091B0008F7D66
:1007B000F9CF809190008F77809390000895809179
:1007C00090008F7DF9CF80919000877FF5CF809149
:1007D000A0008F778093A00008958091A0008F7D66
:1007E000F9CF8091A000877FF5CF809120018F778E
:1007F000809320010895809120018F7DF9CF809111
:100800002001877FF5CF1F93CF93DF93282F30E010
:10081000F901E854FD4F8491F901EE58FD4FD49150
:10082000F901E45DFD4FC491CC23A1F0162F811195
:1008300083DFEC2FF0E0EE0FFF1FEE5EFD4FA59182
:10084000B4918FB7F894EC91111108C0D095DE23C4
:10085000DC938FBFDF91CF911F910895DE2BF8CFEE
:10086000CF93DF9390E0FC01EE58FD4F2491845D1F
:100870009D4FFC0184918823D1F090E0880F991F4F
:10088000FC01E850FE4FA591B491FC01EE5EFD4FD6
:10089000C591D49161110EC09FB7F8948C91E22F4D
:1008A000E0958E238C932881E223E8839FBFDF911C
:1008B000CF9108958FB7F894EC91E22BEC938FBF12
:1008C000F6CF3FB7F8948091020390910303A09173
:1008D0000403B091050326B5A89B05C02F3F19F06E
:1008E0000196A11DB11D3FBFBA2FA92F982F8827B0
:1008F000BC01CD01620F711D811D911D42E0660F8B
:10090000771F881F991F4A95D1F708958F929F925C
:10091000AF92BF92CF92DF92EF92FF926B017C0178
:10092000D0DF4B015C01C114D104E104F104B1F04A
:10093000C8DF681979098A099B09683E73408105F7
:10094000910588F321E0C21AD108E108F10888EE88
:10095000880E83E0981EA11CB11CE5CFFF90EF909C
:10096000DF90CF90BF90AF909F908F9008952FB75A
:10097000F8946091FE027091FF02809100039091C3
:1009800001032FBF08950F931F93CF93DF93EC01C3
:10099000EEDF688779878A879B87E881F9810284FF
:1009A000F385E02DCE01199597FF14C0E0DF08858F
:1009B00019852A853B85601B710B820B930B0C817B
:1009C0001D812E813F81601771078207930728F3ED
:1009D0008FEF9FEFDF91CF911F910F910895EF92CD
:1009E000FF920F931F93CF93DF93EC01162FF89490
:1009F000F090B20061E08D8506DF612F062E6295D2
:100A00006025062E66956695602570E06F5F7F4FC6
:100A1000759567957695762F662777956795162B4A
:100A200080E809E0982F912319F001508695FACFBC
:100A30008091B2008F198D30D8F3F090B200EE247F
:100A4000E3948D85E01670F460E010FF61E0DBDE7A
:100A50008091B2008F198D30D8F3F090B2001695C6
:100A6000E394EFCF60E0CFDE78948AE090E0801BE3
:100A700091099DE0899F802D11249091B2009F19CA
:100A80009817D8F3DF91CF911F910F91FF90EF90BE
:100A90000895DC011D969C911D9746EF490F662332
:100AA00009F46AC0443050F08EEC890F843030F085
:100AB00082EC890FF0E0E0E0883010F4E8E6F0E046
:100AC0008081443020F022EC290F283018F121E0F9
:100AD000822B443048F02EEC290F243028F09E530E
:100AE000F0E0E0E0983010F4E8E6F0E080831D9656
:100AF0009C9136EF390F343078F08EEC890F8430CA
:100B000058F082EC890FEDE6F0E0883038F0F0E044
:100B1000E0E004C024E0DCCFEBE6F0E0208181E0FF
:100B20004AEF343078F088E0923389F084E09333F0
:100B300071F082E0943359F082EC890F8830B0F480
:100B400081E042EC490F01C0880F4A95EAF7822BF9
:100B5000343070F02EEC290F243050F09E53EDE627
:100B6000F0E0983038F0F0E0E0E004C081E0EFCF52
:100B7000EBE6F0E080830895443068F08EEC890F56
:100B8000843048F082EC890FEDE6F0E0883028F000
:100B9000F0E0E0E002C0EBE6F0E0808121E030E050
:100BA0005AEF443080F027EF923399F02BEF9333D4
:100BB00081F02DEF943369F022EC290F2830C0F436
:100BC00021E030E052EC590F01C0220F5A95EAF7AC
:100BD00020952823443070F08EEC890F843050F03B
:100BE0009E53EDE6F0E0983038F0F0E0E0E004C02D
:100BF0002EEFEFCFEBE6F0E020831D968C9196EF81
:100C0000980F943068F02EEC280F243048F022EC36
:100C1000280FEDE6F0E0283028F0F0E0E0E002C038
:100C2000EBE6F0E02081211125C0943050F02EEC4D
:100C3000280F243030F022EC280FF0E0E0E02830DC
:100C400010F4E8E6F0E02081943020F032EC380F28
:100C5000383088F03EEF2323943048F09EEC980F14
:100C6000943028F08E53F0E0E0E0883010F4E8E6AD
:100C7000F0E0208308953BEFEECFCF93DF93EC01BC
:100C80008D856330710599F064307105B1F0623083
:100C9000710511F560E0E4DD61E08D85E1DD60E086
:100CA0008D85B1DD60E0CE01DF91CF91F2CE60E0C5
:100CB000D7DD61E08D85D4DDF5CF60E0A4DD60E0B7
:100CC0008D85CEDD789461E0CE01E3DE8FEF8093F9
:100CD0000002DF91CF91089560E095DD60E0EACFFA
:100CE0000F931F93CF93DF938C0163E070E085ED4A
:100CF00094E0C3DF61E08091E20485DD8BE290EC5B
:100D00000197F1F760E070E0CB0100DE60E08091D8
:100D1000E20479DD8BEC94E80197F1F7D0E0C0E0D4
:100D2000D80114968D919C911597C817D90788F40E
:100D3000ED91FC91309751F410928E03EEE8F3E0C0
:100D4000608185ED94E04BDE2196EACFEC0FFD1F2C
:100D5000F7CF64E070E085ED94E0DF91CF911F91D3
:100D60000F918BCF1F93CF93DF93EC01162F63E08E
:100D700070E083DF612FCE0132DE64E070E0CE01EF
:100D80007CDF81E090E0DF91CF911F910895FC011D
:100D9000148690910A0380910B03981799F0E091C3
:100DA0000A03F0E0E855FD4F208180910A0390E0AE
:100DB000019661E570E00E94091880930A03822F72
:100DC00090E008958FEF9FEF089590910A0380912E
:100DD0000B03981741F0E0910A03F0E0E855FD4F4E
:100DE000808190E008958FEF9FEF08950F931F93F8
:100DF000BEDD6093DD047093DE048093DF04909386
:100E0000E00485ED94E0E1DF97FF1CC0B0DD0091C8
:100E1000DD041091DE042091DF043091E004601BBA
:100E2000710B820B930B0091D9041091DA0420917D
:100E3000DB043091DC04601771078207930708F325
:100E40008FEF9FEF1F910F910895FC018485811111
:100E50000DC080910B0320910A0390E08F5A9F4FA1
:100E6000821B910961E570E00C9409188FEF9FEFE8
:100E7000089590E080E00895FC0101900020E9F7DA
:100E80003197AF01481B590BBC018CE294E0FECABC
:100E9000CF93DF93EDDBEC018BE292E0EDDF8C0F83
:100EA0009D1FDF91CF9108958F929F92AF92BF9235
:100EB0000F931F93CF93DF93CDB7DEB7A1970FB6F4
:100EC000F894DEBF0FBECDBF19A2423008F44AE04D
:100ED0008E010F5D1F4F842E912CB12CA12CA501EA
:100EE00094010E941C18E62FB901CA01EA30ECF403
:100EF000E05DD801EE938D01232B242B252B79F770
:100F000090E080E0109711F0CD01B6DFA1960FB60A
:100F1000F894DEBF0FBECDBFDF91CF911F910F912F
:100F2000BF90AF909F908F900895E95CE2CFCF92F1
:100F3000DF92EF92FF92CF93DF936B017C016DE222
:100F40008CE294E049DBEC0166277727CB016C1932
:100F50007D098E099F094AE0A7DF8C0F9D1FDF9155
:100F6000CF91FF90EF90DF90CF900895CF93DF93D4
:100F7000BC01990F880B990B97FF0AC0D8DFEC01D1
:100F80008BE292E079DF8C0F9D1FDF91CF91089566
:100F90004AE08ADFF4CFCF93DF93A5DAEC018BE24E
:100FA00092E06ADF8C0F9D1FDF91CF910895FC01C5
:100FB00080819181009711F00C94CC1360E070E077
:100FC000CB010895AF92BF92CF92DF92EF92FF9242
:100FD0000F931F93CF93DF93DC01CD90DC9011979B
:100FE000C114D10439F01496CD91DC918C017601B5
:100FF000209761F4DF91CF911F910F91FF90EF90B7
:10100000DF90CF90BF90AF90089575015701BFEF6B
:10101000AB1ABB0AF7018081082E000C990B0E94C5
:101020007A16892B91F72197CC0DDD1D8881082E2A
:10103000000C990B0E947A16892B29F0CE15DF053A
:1010400010F02197F3CFAE014F5F5F4F4E195F094C
:10105000D80115965C934E931497CE14DF0420F4B8
:10106000B701C6010E943619D801ED91FC91119784
:1010700014968D919C91E80FF91F1082BBCFFC0153
:1010800024813581232B39F421E0FB0180818823E1
:1010900049F020E007C0808191810E943F1921E042
:1010A000892BB9F7822F08950F931F93CF93DF9366
:1010B0008C01EB01FC01808191810097E1F0688156
:1010C000798161157105A9F0428153812C813D819F
:1010D0004217530770F00E9448198C819D81F801D6
:1010E000958384831D821C82DF91CF911F910F9184
:1010F00008950E94431388819981F8019183808328
:101100008A819B81938382838C819D819583848353
:10111000198218821B821A82E5CFCF93DF93EC01EC
:1011200088819981009711F00E94431319821882D7
:101130001D821C821B821A82DF91CF910895FC01CF
:1011400080819181009711F00C94431308950F93BF
:101150001F93CF93DF93EC0188819981009759F019
:101160002A813B812617370730F081E0DF91CF914C
:101170001F910F9108958B016F5F7F4F0E945A1846
:10118000009759F0998388831B830A832C813D81C2
:10119000232B59F7FC011082E8CF80E0E7CFEF92D4
:1011A000FF920F931F93CF93DF938C017B01EB0191
:1011B00009900020E9F72197C61BD70BBE01C7DFB6
:1011C000811108C0C801DF91CF911F910F91FF904D
:1011D000EF90A3CFF801D583C483B70180819181BB
:1011E000DF91CF911F910F91FF90EF900C944819D0
:1011F0000F931F93CF93DF93CDB7DEB762970FB6F0
:10120000F894DEBF0FBECDBF8C01CB01F801118277
:10121000108213821282158214824AE0BE016F5F2F
:101220007F4F0E94F213BE016F5F7F4FC801B7DF8F
:1012300062960FB6F894DEBF0FBECDBFDF91CF919F
:101240001F910F910895EF92FF920F931F93CF93E9
:10125000DF936115710541F480E0DF91CF911F911B
:101260000F91FF90EF90089541155105A9F07B0172
:10127000EC010C811D81040F151FB80168DF882364
:1012800059F3288139818C819D81B701820F931F89
:101290000E9448191D830C8381E0DFCFEF92FF92FB
:1012A0000F931F93CF93DF93EC017B011982188278
:1012B0001B821A821D821C82FB0101900020E9F72B
:1012C00031978F01061B170BB80141DF811108C050
:1012D000CE01DF91CF911F910F91FF90EF901DCF25
:1012E0001D830C83B70188819981DF91CF911F9174
:1012F0000F91FF90EF900C944819AF92BF92CF924C
:10130000DF92EF92FF920F931F93CF93DF936C01C5
:101310005B017A0189012417350720F48F2D7901AB
:10132000042F182F6DE272E0C601B8DFD5011496C4
:10133000CD91DC91EC16FD06D8F40C171D0708F4CE
:10134000E801D501ED91FC911197EC0FFD1F108183
:1013500010826D917C916E0D7F1DC6016115710526
:1013600099F01DDFF50180819181C80FD91F188385
:10137000C601DF91CF911F910F91FF90EF90DF9009
:10138000CF90BF90AF900895C8DEECCFCF92DF92A0
:10139000EF92FF920F931F93CF93DF931F921F92B1
:1013A000CDB7DEB78C016B01E42E6DE272E076DF23
:1013B000C601E9DA0E2C000CFF0897FD0FC0E816F5
:1013C000F90661F089831A8241E050E0BE016F5F47
:1013D0007F4FC80138DFC601D6DAEFCFC8010F90C2
:1013E0000F90DF91CF911F910F91FF90EF90DF90C1
:1013F000CF900895EF92FF920F931F93CF93DF93B7
:101400001F921F92CDB7DEB78C017B016DE272E0B7
:1014100045DFC701B8DA97FD0AC089831A8241E027
:1014200050E0BE016F5F7F4FC8010DDFF2CFC801F2
:101430000F900F90DF91CF911F910F91FF90EF9040
:1014400008951F920F920FB60F9211240BB60F92B0
:101450002F933F934F935F936F937F938F939F93BC
:10146000AF93BF93EF93FF938FE893E093D8FF91EF
:10147000EF91BF91AF919F918F917F916F915F910C
:101480004F913F912F910F900BBE0F900FBE0F9079
:101490001F9018951F920F920FB60F9211240BB642
:1014A0000F922F938F939F93EF93FF93E0919F035E
:1014B000F091A0038081E091A503F091A60382FD45
:1014C0001DC090818091A8038F5F8F732091A90325
:1014D000821741F0E091A803F0E0E157FC4F958FAF
:1014E0008093A803FF91EF919F918F912F910F907F
:1014F0000BBE0F900FBE0F901F9018958081F2CFFA
:101500001F920F920FB60F9211240BB60F922F93CA
:101510003F934F935F936F937F938F939F93AF937B
:10152000BF93EF93FF938CE294E034D8FF91EF9157
:10153000BF91AF919F918F917F916F915F914F91EB
:101540003F912F910F900BBE0F900FBE0F901F90E9
:1015500018951F920F920FB60F9211240BB60F928F
:101560002F938F939F93EF93FF93E0913C04F0911F
:101570003D048081E0914204F091430482FD1DC04E
:101580009081809145048F5F8F732091460482176C
:1015900041F0E0914504F0E0E45DFB4F958F8093CE
:1015A0004504FF91EF919F918F912F910F900BBE6A
:1015B0000F900FBE0F901F9018958081F2CF1F9251
:1015C0000F920FB60F9211242F933F938F939F93F7
:1015D000AF93BF938091FE029091FF02A091000310
:1015E000B09101033091FD0223E0230F2D3758F510
:1015F0000196A11DB11D2093FD028093FE029093E0
:10160000FF02A0930003B093010380910203909125
:101610000303A0910403B09105030196A11DB11D20
:101620008093020390930303A0930403B0930503F4
:10163000BF91AF919F918F913F912F910F900FBECE
:101640000F901F90189526E8230F0296A11DB11D3B
:10165000D2CF1F920F920FB60F9211240BB60F929A
:10166000DF92EF92FF920F931F932F933F934F932D
:101670005F936F937F938F939F93AF93BF93CF931A
:10168000DF93EF93FF93C0910803D0910903209754
:1016900009F433C00091B2002D8530E0F901E8541F
:1016A000FD4F8491F901EE58FD4FF490F901E45D8E
:1016B000FD4F1491112371F081113ED8E12FF0E01C
:1016C000EE0FFF1FE252FE4FA591B491EC91FE2266
:1016D00011E009F410E0609100026F3F41F5112321
:1016E00061F01092000281E08093F9021092FA02F8
:1016F00010E01093FC020093FB02FF91EF91DF9149
:10170000CF91BF91AF919F918F917F916F915F9199
:101710004F913F912F911F910F91FF90EF90DF908C
:101720000F900BBE0F900FBE0F901F9018958091D9
:10173000FB0222E0200F281B8FE4289F9001112438
:10174000232F33272695269589E0861BE82FF0E086
:10175000E217F30708F0822F680F609300024091B0
:10176000F9027091FA02113079F58150942F990F96
:101770008F3F19F0742B492FF8CF7093FA02909392
:10178000F902683008F4B4CF4091FA024F774093E1
:10179000FA0280910B03D0900A0390E0019651E584
:1017A000E52EF12CB7010E940918D8161906E1F4AC
:1017B00081E08C87112321F0E217F30708F491CF21
:1017C0008FEF8093000294CF50E08150990BDA01A3
:1017D00002C0AA0FBB1F8A95E2F7CD01A093F902C0
:1017E000872B8093FA02CDCFA0910B03B0E0A855D0
:1017F000BD4F4C9380910B0390E00196B7010E947E
:10180000091880930B03D6CF1F920F920FB60F9239
:1018100011240BB60F922F933F934F935F936F93C7
:101820007F938F939F93AF93BF93EF93FF9311DFBA
:10183000FF91EF91BF91AF919F918F917F916F91A8
:101840005F914F913F912F910F900BBE0F900FBE64
:101850000F901F9018951F920F920FB60F921124A0
:101860000BB60F922F933F934F935F936F937F939A
:101870008F939F93AF93BF93EF93FF93EADEFF9114
:10188000EF91BF91AF919F918F917F916F915F91F8
:101890004F913F912F910F900BBE0F900FBE0F9065
:1018A0001F901895EFE8F3E01382128248EE53E0A0
:1018B00060E070E044835583668377838BE092E039
:1018C0009183808325E331E03587248724E331E069
:1018D0003787268720E331E0318B208B21E331E00D
:1018E000338B228B22E331E0358B248B26E331E0EE
:1018F000378B268B118E128E138E148EECE2F4E051
:101900001382128244835583668377839183808315
:1019100085EC90E09587848784EC90E097878687B4
:1019200080EC90E0918B808B81EC90E0938B828BAC
:1019300082EC90E0958B848B86EC90E0978B868B85
:10194000118E128E138E148EE5EDF4E01382128246
:101950008DE192E091838083148685E4858786E912
:1019600090E0A0E0B0E084839583A683B78381EF05
:1019700098ED978786876DE272E08FEC94E08EDCBD
:101980006EE272E089EC94E089CCCF93DF93CDB71F
:10199000DEB7E7970FB6F894DEBF0FBECDBF7894E1
:1019A00084B5826084BD84B5816084BD85B5826064
:1019B00085BD85B5816085BD80916E008160809315
:1019C0006E0010928100809181008260809381007E
:1019D000809181008160809381008091800081608E
:1019E000809380008091B10084608093B1008091E9
:1019F000B00081608093B0008091910082608093FC
:101A0000910080919100816080939100809190007D
:101A10008160809390008091A10082608093A100FA
:101A20008091A10081608093A1008091A0008160DD
:101A30008093A00080912101826080932101809198
:101A40002101816080932101809120018160809338
:101A5000200180917A00846080937A0080917A00DE
:101A6000826080937A0080917A00816080937A000E
:101A700080917A00806880937A001092C1000FB63E
:101A8000F894A8958091600088618093600010921E
:101A900060000FBEE0913C04F0913D0422E0208301
:101AA000E0913804F09139041082E0913A04F09109
:101AB0003B0480E1808310924404E0914004F09163
:101AC000410486E08083E0913E04F0913F049081E0
:101AD00090619083E0913E04F0913F049081986082
:101AE0009083E0913E04F0913F0490819068908350
:101AF000E0913E04F0913F0490819F7D9083E091BE
:101B00009F03F091A0032083E0919B03F0919C033D
:101B10008083E0919D03F0919E0392E89083109260
:101B2000A703E091A303F091A4038083E091A103B4
:101B3000F091A203808180618083E091A103F09104
:101B4000A203808188608083E091A103F091A203C9
:101B5000808180688083E091A103F091A20380815D
:101B60008F7D808380E392E087D98BE292E084D9F5
:101B70008091080390910903855D944059F062E0DB
:101B800070E085ED94E079D885ED94E090930903B9
:101B9000809308038091B000809307038091B10087
:101BA000809306031092B00087E08093B10064EF49
:101BB00071E080E090E00E94860488E198E20FB630
:101BC000F894A895809360000FBE90936000CE01BA
:101BD00001967C01DC01A95EB4406D0133E0332E37
:101BE00022242394A8956DE272E0CE018E9656DBF6
:101BF0006DE272E0CE01889651DB8CE294E00E94A7
:101C0000AC02892B09F474C16CE274E0C701F2DB09
:101C1000B701CE01889648DAC70191DA66E472E02E
:101C2000CE0188962CDA882309F462C181E793E01B
:101C30002FD90E94B7044B015C010E94B7046819B8
:101C400079098A099B09603C744D8140910508F02F
:101C5000BDC1A8958CE294E00E94AC02892B69F387
:101C60006CE274E0C701C6DBB701CE0188961CDACE
:101C7000C70165DA6FE472E0CE01889600DA882346
:101C800039F00E94B7044B015C018EE693E000D965
:101C900062E572E0CE018896F2D98823B1F10E9404
:101CA000B7044B015C01CE01889675D98CE294E0B3
:101CB0000E94AC02181619066CF00E94B70468194D
:101CC00079098A099B0960367A4E8105910510F4DD
:101CD000A895ECCF6EE170E080E090E00E94860471
:101CE0006CE274E0C70186DB6CE572E0C701C7D91E
:101CF000882349F0C7010E9470066EE170E080E021
:101D000090E00E948604C7011ADA62E672E0CE0112
:101D10008896B5D9882381F10E94B7044B015C01F4
:101D2000CE01889638D98CE294E00E94AC020397E9
:101D30000CF49AC06EE170E080E090E00E948604AE
:101D40004CE26CE274E0CE01829620DB6CE274E03F
:101D5000C70150DBC7012BD9162FCE01829627D998
:101D6000CB01612F0E94B61783E593E091D8C7019C
:101D7000E6D9CE018296E3D96DE672E0CE0188966F
:101D80007ED9882349F10E94B7044B015C01CE0142
:101D9000889601D98CE294E00E94AC0218161906CC
:101DA0000CF070C06EE170E080E090E00E9486046C
:101DB0006CE274E0CE0182961DDBCE018296F7D8EC
:101DC000653071058105910509F06AC081E090E0F8
:101DD000CDD8CE018296B3D968E772E0CE0188965D
:101DE0004ED9882379F10E94B7044B015C018BE343
:101DF00093E04ED8412C512C32014394C2010E94F1
:101E0000AE17182F4AE0C301B2014ED885E892E020
:101E100033D8612F70E0C701EBD9C701BCD8C70127
:101E20008ED964E170E080E090E00E948604BFEF0C
:101E30004B1A5B0A6B0A7B0A2BE4421651046104BD
:101E40007104E1F668E872E0CE01889618D988231B
:101E500099F188E198E00FB6F894A8958093600016
:101E60000FBE90936000FFCF0E94B70468197909F4
:101E70008A099B0960367A4E8105910508F05ACF90
:101E8000A89551CF0E94B704681979098A099B095E
:101E900060367A4E8105910508F084CFA8957ACFF7
:101EA000CB010E94AE17682F70E0C701A1D9C7010E
:101EB00072D8C70144D98DCF61E972E0CE0188960E
:101EC000DED8882309F4B9CE87E293E00E94480760
:101ED00082E193E00E9438038091E5049091E6044A
:101EE000009709F06DC0DA82C98289819A813ED853
:101EF000CE01889624D9CE018E9621D96DE272E06A
:101F0000CE018296CBD98FE893E00E94AC02892B58
:101F100081F064E670E080E090E00E9486046FE863
:101F200073E0C70167DAB701CE018296BDD8C70159
:101F300006D96DE272E0CE018296A1D8811119C056
:101F4000A89568E972E0CE01829699D8882389F035
:101F500084E893E00E9448078FE893E00E945203D0
:101F600040913E0350E06CE073E08FE893E00E9404
:101F70004602CE018296E3D86DE272E0CE018896E9
:101F80008DD985ED94E00E942507892B21F5CE019E
:101F90008896D5D880918D038B7F79F464EA72E0BE
:101FA0008FEC94E0FCD88CE094E00E9448078FEC22
:101FB00094E00E94700620928D030E94710312CE5D
:101FC000D701A81BB90BBA83A9838FCF8EEF92E0FC
:101FD0000E9448078DCF80918D038130D9F464E64B
:101FE00070E080E090E00E9486044AE065ED74E0D5
:101FF000C701CCD9B701CE01889656D8C7019FD862
:10200000CE0188960E94E20710920B0310920A03F9
:102010001092E10480918D038230D9F46EE170E07A
:1020200080E090E00E9486044AE065ED74E0C7011C
:10203000ADD9B701CE01889637D8C70180D8CE0177
:1020400088960E94E20710920B0310920A031092E6
:10205000E10480918D03833009F01EC16EE170E0D0
:1020600080E090E00E94860485ED94E00E94C7061F
:1020700085ED94E00E94E5068B3221F485ED94E035
:102080000E94C70685ED94E00E942507892B09F47C
:10209000F3C085ED94E00E94E50693ED980F923031
:1020A00028F090ED980F9A3008F0D6C00E94F606FE
:1020B000FC0197FD5EC08D32910509F052C080E0B1
:1020C00090E0A0E8BFE38CAB9DABAEABBFAB812C87
:1020D000912C540110E000E0E130F10569F1ED329E
:1020E000F10509F491C0EE32F10509F48FC0CF017A
:1020F000C0970A9708F5AAE0B0E0A501940144D77B
:102100004F01FF0FAA08BB08860E971EA81EB91E16
:1021100090E3891A9108A108B108112369F02DEC08
:102120003CEC4CEC5DE36CA97DA98EA99FA95FD620
:102130006CAB7DAB8EAB9FAB85ED94E00E94C70688
:102140000E94F606FC01C0970A9730F2EE32F105C4
:1021500009F05EC0112309F4BFCF102F01115EC03A
:102160006DC0C0970A9708F4AACFEE32F10509F4C2
:10217000A6CF6091E3047091E404072E000C880B55
:10218000990BD6D52B013C011BA21AA21DA21CA2A1
:102190001FA21EA287012AE04CE0C301B201BAD1FE
:1021A000009709F454C0BC01CE0182960E94CF086A
:1021B000CE0182960E947302CE0182960E949F08F1
:1021C00080918C03A4E08A9FF0011124EC5BFC4F0A
:1021D00040825182628273828F5F80938C0320E001
:1021E0003CE34CE156ECC301B2019CD5882329F0B5
:1021F000809143038F5F809343036AE070E080E047
:1022000090E00E9486043ECF01E096CF11E094CF8B
:10221000E130F10509F460CF002341F0B094A094BF
:1022200090948094811C911CA11CB11CC501B40127
:102230007FD52B013C01112309F4A6CFC501B401C0
:1022400077D52CA93DA94EA95FA9D1D59BCFCE01A9
:1022500082960E948D08ACCF8B3249F485ED94E0D4
:102260000E94C70681EA92E00E943C07C6CF85ED36
:1022700094E00E94C706C1CF80914203863060F48B
:1022800082E080938D0381EA92E00E943C07809176
:1022900042038F5F8093420387EF93E00E943803ED
:1022A000CE0188960E94CB07A89580918D0382303D
:1022B00009F45BC0833009F4B1C0813009F09CC0DF
:1022C00021E030E050E040E0BE01685D7F4FC70193
:1022D00014D8B70189EC94E00E945408C7010E9409
:1022E0009F0889EC94E00E94730281EA92E00E94C8
:1022F0003C0724E030E041E050E0BE01685D7F4FE4
:10230000C7010E947D09C7010E94D7074B015C01EC
:1023100060934103C7010E949F08C501B40177275C
:10232000882799274AE00E94540781EA92E00E9498
:102330003C072CA53DA544E050E0BE01685D7F4F01
:10234000C7010E947D09C7010E94D7074B01709306
:10235000400360933F03C7010E949F08C4010E948D
:10236000B60782E080938D0347C010914203173077
:1023700008F049C06DE272E08FEC94E00E94CF0853
:102380004091CD045091CE046091C9047091CA046B
:102390008FEC94E00E94230941E050E06AE572E08E
:1023A0008FEC94E00E9423094AE0B701812F90E06E
:1023B00019D2F70101900020E9F73197AF014E19CA
:1023C0005F09B7018FEC94E00E94230941E050E0DF
:1023D00066EA72E08FEC94E00E9423098FEC94E0AF
:1023E0000E9470068DED93E00E9438038FEC94E01C
:1023F0000E94CB0730928D036DE272E0CE01889689
:102400000E94CF08C4CD8BE292E00E943C0710925C
:102410000B0310920A031092E104ECCF81EC93E0DD
:102420000E94480710923E03B12C80914303B816D6
:1024300008F042C000913E0310E0F801EE0FFF1FCC
:10244000EE0FFF1FEC5BFC4F20E030E040E251E478
:102450006081718182819381CAD4AFD5F801E45F34
:10246000FC4F6083CB0199270E94B60700913E0381
:102470000F5F00933E0310E0F801EE0FFF1FEE0F19
:10248000FF1FEC5BFC4F20E030E040E251E4608154
:10249000718182819381ABD490D5872FF801E45F5D
:1024A000FC4F708390E00E94B60780913E038F5FDF
:1024B00080933E03B394B9CF10924303109242032A
:1024C00084E050CF89EC94E00E949F088FEC94E068
:1024D0000E949F088DE192E09093D6048093D504EA
:1024E00070E060E085ED94E00E943D068091080375
:1024F00090910903855D944021F410920903109294
:102500000803809107038093B000809106038093B5
:10251000B1000895EF920F931F93CF93DF93E801DB
:1025200034E047FD34E1042E000C550B57FF03C087
:10253000519541955109E32E022F242FAE018AD1E6
:10254000CE01DF91CF911F910F91EF9008950F93DE
:102550001F93CF93DF938230910510F482E090E0D7
:10256000E091E704F091E80430E020E0B0E0A0E082
:10257000309799F42115310509F44AC0281B390B0D
:1025800024303105D8F58A819B816115710589F167
:10259000FB0193838283FE0111C04081518102813E
:1025A000138148175907E0F04817590799F4109715
:1025B00061F012960C93129713961C933296CF01EA
:1025C000DF91CF911F910F9108950093E70410932D
:1025D000E804F4CF2115310551F04217530738F0C4
:1025E000A901DB019A01BD01DF01F801C1CFEF01B3
:1025F000F9CF9093E8048093E704CDCFFE01E20F7A
:10260000F31F819391932250310939832883D7CFC7
:102610002091E5043091E604232B41F4209103023C
:10262000309104023093E6042093E50420910102E6
:10263000309102022115310541F42DB73EB740918A
:10264000050250910602241B350BE091E504F09140
:10265000E604E217F307A0F42E1B3F0B28173907F7
:1026600078F0AC014E5F5F4F2417350748F04E0FEE
:102670005F1F5093E6044093E504819391939FCFAD
:10268000F0E0E0E09CCFCF93DF930097E9F0FC010E
:10269000329713821282A091E704B091E804ED0111
:1026A00030E020E01097A1F420813181820F931F48
:1026B0002091E5043091E6042817390709F061C03C
:1026C000F093E604E093E504DF91CF910895EA01E9
:1026D000CE17DF07E8F54A815B819E014115510560
:1026E000B1F7E901FB83EA8349915991C40FD51FE2
:1026F000EC17FD0761F4808191810296840F951F8C
:10270000E90199838883828193819B838A83F0E0A6
:10271000E0E012968D919C9113970097B9F52D9159
:102720003C911197CD010296820F931F2091E504F1
:102730003091E6042817390739F6309751F5109291
:10274000E8041092E704B093E604A093E504BCCF3C
:10275000D383C28340815181840F951FC817D90745
:1027600061F44E5F5F4F88819981480F591F5183F3
:1027700040838A819B81938382832115310509F0EF
:10278000B0CFF093E804E093E7049ECFFD01DC01B5
:10279000C0CF13821282D7CF1F93FC0199278827BD
:1027A000BC01E89411911032E9F3193010F01E3099
:1027B000C8F31B3249F01D3241F4689405C01CD0A7
:1027C000610F711D811D911D119110531A30B8F3C5
:1027D0003EF490958095709561957F4F8F4F9F4FF8
:1027E0001F910895BB274A3031F4992322F4BDE2AA
:1027F000909581959F4F16C0592F482F372F262F20
:10280000660F771F881F991F660F771F881F991FF4
:10281000620F731F841F951F660F771F881F991FF4
:102820000895BB27FB015527AA27880F991FAA1FC8
:10283000A41710F0A41B83955051B9F7A05DAA33DB
:1028400008F0A95DA193009779F7B111B1931192A6
:10285000CB0158C28F929F92AF92BF92CF92DF92DC
:10286000EF92FF920F931F93CF93DF9300D000D08E
:1028700000D0CDB7DEB76A01F22EB02E102FFBE3E9
:10288000AF2EA01608F41BE31F5F012F27E0AE0157
:102890004F5F5F4F57D1BC018981982F997091305C
:1028A00009F44EC09BE2E1FC04C09E2D9170E0FC57
:1028B00049C05E2D5071E82FE87083FF55C084E059
:1028C000911101C083E0EF2DE81B8F1508F0E0E0C7
:1028D000D6018E2F20E25523C9F1992329F0D60184
:1028E0009C93C60101966C0196012D5F3F4FE2FE5D
:1028F00033C08EE4D6018C9391E411969C9311978A
:1029000012968C93D9018E2F90E281112AC0E20F8A
:10291000F32FF11D10828EEF9FEF29960FB6F894DA
:10292000DEBF0FBECDBFDF91CF911F910F91FF9002
:10293000EF90DF90CF90BF90AF909F908F900895D1
:102940009DE2B7CF90E2B5CF2D9381508111FCCF9E
:10295000CE0ED11CE0E0C1CF8EE6D6018C9391E67D
:10296000CCCF9D938150D1CF482F447082FF3DC082
:1029700084E0911101C083E08F1510F4EF2DE81B66
:10298000D6018E2F20E2552309F1992329F0D60193
:102990009C93C60101966C0196012D5F3F4FE2FEAC
:1029A0001BC089E4D6018C938EE411968C93119709
:1029B00086E412968C93D9018E2F90E2882309F435
:1029C000A6CF9D938150FACF2D9381508111FCCFDA
:1029D000CE0ED11CE0E0D9CF89E6D6018C938EE6ED
:1029E00011968C93119786E6E4CF9B0177FF02C086
:1029F00030E020E0A1E0B0E0911102C0B0E0A0E042
:102A0000F9013196AE0FBF1F8B2C912CBB2009F41E
:102A100061C05401EFEFAE1ABE0AAA0DBB1DFA1633
:102A20001B0619F014F04F2D4A1B511188C0E3FC0E
:102A300059C07601A42FB0E2A1114FC0C40ED11C21
:102A4000992309F45BC040E0D6011196F60190830A
:102A50006D01552309F448C0012F060F9A81582FA4
:102A6000507184FF03C0913309F4015010160CF02B
:102A700047C0093008F008E0EEE2FE2E5B01A01A24
:102A8000B10885019194819491082F3F320729F470
:102A9000D601FC92F60131966F016217730794F12B
:102AA000021713077CF5DB01A21BB30BAA24A39426
:102AB000B12CAC0EBD1EAA0DBB1D11968C912150E0
:102AC0003109D601119628153905F4F0F6018083F5
:102AD0006D01DBCFB12CA12CA0CFF701B1937F0109
:102AE000A150AACF9111B0CFD601942F50E302C0CC
:102AF0005D9391509111FCCFC40ED11C40E0ACCF3E
:102B000001E0BACF80E3DBCF6217730731F496336D
:102B100088F4953311F4552369F0F6018083FD01A3
:102B2000842F90E2811108C0A40FB11D1C9290E087
:102B300080E0F3CE81E3F1CF91938150F3CF9111F7
:102B400083CF8ACF283008F027E03327DA01990FA6
:102B5000311D87FD916000966105710539F4326081
:102B60002E5F3D9330E32A95E1F708959F3F30F0C3
:102B700080387105610509F03C5F3C5F3D93913001
:102B800008F08068911DDF93CF931F930F93FF92FE
:102B9000EF92192F987F9695E92F96959695E90FC4
:102BA000FF27E25CFE4F99273327EE24FF24A7017D
:102BB000E70105900894079428F4360FE71EF81EE5
:102BC000491F511D660F771F881F991F0694A1F793
:102BD0000590079428F4E70EF81E491F561FC11DE3
:102BE000770F881F991F661F0694A1F70590079419
:102BF00028F4F80E491F561FC71FD11D880F991FB3
:102C0000661F771F0694A1F70590079420F4490FDB
:102C1000561FC71FD81F990F661F771F881F06945E
:102C2000A9F784911095177041F0D695C7955795DF
:102C30004795F794E7941A95C1F7E4EEF0E06894AD
:102C40001590159135916591959105907FE2739559
:102C5000E118F10A430B560BC90BD009C0F7E10C80
:102C6000F11E431F561FC91FD01D7EF4703311F48F
:102C70008A95E6CFE894015030F0080F0AF4002757
:102C8000021708F4202F2395022F7A3328F079E3D6
:102C90007D932A95E9F710C07D932A9589F60694CD
:102CA00097956795379517951794E118F10A430B97
:102CB000560BC90BD00998F023957E9173957A3302
:102CC00008F070E37C932013B8F77E9170617D93D8
:102CD00030F0839571E37D9370E32A95E1F7112439
:102CE000EF90FF900F911F91CF91DF91992787FD72
:102CF000909508959111DEC0803219F08950855069
:102D0000D0F70895DC01FC01672F71917723E1F77B
:102D1000329704C07C916D9370836291AE17BF07A8
:102D2000C8F3089540D008F481E00895E89409C0FC
:102D300097FB3EF490958095709561957F4F8F4FEE
:102D40009F4F9923A9F0F92F96E9BB279395F69504
:102D5000879577956795B795F111F8CFFAF4BB0F82
:102D600011F460FF1BC06F5F7F4F8F4F9F4F16C0E6
:102D7000882311F096E911C0772321F09EE8872F70
:102D8000762F05C0662371F096E8862F70E060E02C
:102D90002AF09A95660F771F881FDAF7880F9695A5
:102DA000879597F90895990F0008550FAA0BE0E849
:102DB000FEEF16161706E807F907C0F012161306FD
:102DC000E407F50798F0621B730B840B950B39F43D
:102DD0000A2661F0232B242B252B21F408950A26A3
:102DE00009F4A140A6958FEF811D811D08950BD098
:102DF0007BC06CD028F071D018F0952309F05DC02D
:102E000062C01124A5C081D0A0F3959FD1F3950F86
:102E100050E0551F629FF001729FBB27F00DB11D5E
:102E2000639FAA27F00DB11DAA1F649F6627B00DEE
:102E3000A11D661F829F2227B00DA11D621F739FD7
:102E4000B00DA11D621F839FA00D611D221F749FE5
:102E50003327A00D611D231F849F600D211D822F2C
:102E6000762F6A2F11249F5750408AF0E1F0882373
:102E70004AF0EE0FFF1FBB1F661F771F881F915080
:102E80005040A9F79E3F510570F017C061C05F3FE9
:102E9000ECF3983EDCF3869577956795B795F795B3
:102EA000E7959F5FC1F7FE2B880F911D969587953B
:102EB00097F9089599278827089597F99F6780E8DB
:102EC00070E060E008959FEF80EC089500240A947C
:102ED0001616170618060906089500240A941216F5
:102EE0001306140605060895092E0394000C11F428
:102EF000882352F0BB0F40F4BF2B11F460FF04C0D5
:102F00006F5F7F4F8F4F9F4F089557FD9058440F2D
:102F1000551F59F05F3F71F04795880F97FB991F38
:102F200061F09F3F79F087950895121613061406F5
:102F3000551FF2CF4695F1DF08C016161706180682
:102F4000991FF1CF86957105610508940895E8945D
:102F5000BB2766277727CB0197F90895F999FECF0C
:102F600092BD81BDF89A992780B50895262FF999C9
:102F7000FECF1FBA92BD81BD20BD0FB6F894FA9A5C
:102F8000F99A0FBE0196089509D0A59F900DB49FA0
:102F9000900DA49F800D911D11240895A29FB00152
:102FA000B39FC001A39F700D811D1124911DB29F7D
:102FB000700D811D1124911D0895AFDF88F09F577A
:102FC00090F0B92F9927B751A0F0D1F0660F771F75
:102FD000881F991F1AF0BA95C9F712C0B13081F055
:102FE000B6DFB1E00895B3CF672F782F8827B85F99
:102FF00039F0B93FCCF3869577956795B395D9F7B6
:103000003EF490958095709561957F4F8F4F9F4FBF
:10301000089597FB072E16F4009406D077FD08D08C
:1030200035D007FC05D03EF4909581959F4F0895CB
:10303000709561957F4F0895A1E21A2EAA1BBB1BC4
:10304000FD010DC0AA1FBB1FEE1FFF1FA217B30774
:10305000E407F50720F0A21BB30BE40BF50B661F8A
:10306000771F881F991F1A9469F76095709580954E
:1030700090959B01AC01BD01CF010895EE0FFF1F9C
:10308000881F8BBF0790F691E02D1994AA1BBB1BDC
:1030900051E107C0AA1FBB1FA617B70710F0A61B58
:1030A000B70B881F991F5A95A9F780959095BC0179
:1030B000CD0108954F925F926F927F928F929F926F
:1030C000AF92BF92CF92DF92EF92FF920F931F9336
:1030D000CF93DF938C01009791F4CB01DF91CF91D7
:1030E0001F910F91FF90EF90DF90CF90BF90AF9026
:1030F0009F908F907F906F905F904F9028CAFC01B7
:10310000E60FF71F9C0122503109E217F30708F47C
:10311000AAC0D901CD91DC911197C617D70718F134
:10312000C530D10570F0CE0104978617970748F097
:10313000C61BD70B2297C193D1936D937C93CF017C
:10314000A2DAC801DF91CF911F910F91FF90EF900C
:10315000DF90CF90BF90AF909F908F907F906F90B7
:103160005F904F9008955B01AC1ABD0A4C018C0E24
:103170009D1EA091E704B091E804512C412CF12C44
:10318000E12C109731F58091E5049091E6048815C3
:10319000990509F05CC04616570608F058C08091A2
:1031A000010290910202009741F48DB79EB74091C1
:1031B000050250910602841B950BE817F90708F0E9
:1031C00052C0F093E604E093E504F9017183608353
:1031D000B8CF8D919C91119712966C90129713967F
:1031E0007C901397A815B90559F56C0142E0C40EFF
:1031F000D11CCA14DB0420F1AC014A195B09DA01C5
:103200001296159780F06282738251834083D901B0
:103210006D937C93E114F10471F0D7011396FC9344
:10322000EE9312978ECF22968C0F9D1FF9019183FA
:103230008083F301EFCFF093E804E093E70481CFBC
:103240004816590608F42C017D01D3019ACFCB0111
:103250007ED97C01009739F0AE01B80107D0C801D2
:1032600012DA87016ECF10E000E06BCFFB01DC01CA
:1032700002C001900D9241505040D8F70895FB01D3
:10328000DC018D91019080190110D9F3990B0895FB
:10329000FB01DC0101900D920020E1F7089512E09E
:1032A000C2E1D2E000E005C0802FFE01E7DE2196FA
:1032B000011DC331D10780E00807B1F7F894FFCFB3
:1032C000FF0000E904800000000000EC0246027BE1
:1032D000025203AC028A029E0200000000B20646BF
:1032E00002390745022507C706E5060D0A0030002A
:1032F0004F70656E696E67205344492D31322062EC
:1033000075732E2E2E0041542B44454255470041E3
:10331000540041542B534449434D4400304F4F56C1
:10332000210041542B454550524F4D570041542BDD
:10333000454550524F4D520041542B454552454151
:1033400044414C4C003A200041542B5245534554C3
:103350000041542B46494E00434F4E53554C544167
:08336000002C2000304D21007B
:020000023000CC
:10E000000D9489F10D94B2F10D94B2F10D94B2F129
:10E010000D94B2F10D94B2F10D94B2F10D94B2F1F0
:10E020000D94B2F10D94B2F10D94B2F10D94B2F1E0
:10E030000D94B2F10D94B2F10D94B2F10D94B2F1D0
:10E040000D94B2F10D94B2F10D94B2F10D94B2F1C0
:10E050000D94B2F10D94B2F10D94B2F10D94B2F1B0
:10E060000D94B2F10D94B2F10D94B2F10D94B2F1A0
:10E070000D94B2F10D94B2F10D94B2F10D94B2F190
:10E080000D94B2F10D94B2F10D94B2F10D94B2F180
:10E090000D94B2F10D94B2F10D94B2F10D94B2F170
:10E0A0000D94B2F10D94B2F10D94B2F10D94B2F160
:10E0B0000D94B2F10D94B2F10D94B2F10D94B2F150
:10E0C0000D94B2F10D94B2F10D94B2F10D94B2F140
:10E0D0000D94B2F10D94B2F10D94B2F10D94B2F130
:10E0E0000D94B2F141546D656761323536300041AF
:10E0F000726475696E6F206578706C6F72657220DE
:10E1000073746B3530305632206279204D4C530099
:10E11000426F6F746C6F616465723E004875683F52
:10E1200000436F6D70696C6564206F6E203D200048
:10E130004350552054797065202020203D20005FF9
:10E140005F4156525F415243485F5F3D2000415658
:10E1500052204C696243205665723D20004743437C
:10E160002056657273696F6E203D20004350552024
:10E1700049442020202020203D20004C6F7720663D
:10E18000757365202020203D20004869676820665F
:10E190007573652020203D200045787420667573D6
:10E1A00065202020203D20004C6F636B2066757336
:10E1B000652020203D20004D617220203720323024
:10E1C000313300312E362E3800342E332E350056A2
:10E1D00023202020414444522020206F7020636F70
:10E1E00064652020202020696E73747275637469E1
:10E1F0006F6E2061646472202020496E74657272B3
:10E20000757074006E6F20766563746F7200726A49
:10E210006D702020006A6D70200057686174207056
:10E220006F72743A00506F7274206E6F7420737541
:10E2300070706F72746564004D7573742062652030
:10E2400061206C6574746572002000577269747483
:10E25000696E672045450052656164696E672045B7
:10E26000450045452065727220636E743D00504F35
:10E27000525400303D5A65726F2061646472003FF1
:10E280003D43505520737461747300403D454550C3
:10E29000524F4D207465737400423D426C696E6B41
:10E2A000204C454400453D44756D70204545505215
:10E2B0004F4D00463D44756D7020464C415348001B
:10E2C000483D48656C70004C3D4C69737420492F83
:10E2D0004F20506F72747300513D51756974005234
:10E2E0003D44756D702052414D00563D73686F7707
:10E2F00020696E7465727275707420566563746FF0
:10E30000727300593D506F727420626C696E6B00BD
:10E310002A0011241FBECFEFD1E2DEBFCDBF01E046
:10E320000CBF12E0A0E0B2E0EEE1FDEF03E00BBFB6
:10E3300002C007900D92A030B107D9F712E0A0E01B
:10E34000B2E001C01D92AE30B107E1F70F9460F367
:10E350000D948DFE01E20EBF0FEF0DBF11241FBE05
:10E360000D9460F30D9400F020E030E040ED57E0B4
:10E3700005C0FA013197F1F72F5F3F4F2817390792
:10E38000C0F308959C01260F311DC901A0E0B0E043
:10E390002F5F3F4FABBFFC018791882361F08093D3
:10E3A000C6008091C00086FFFCCF8091C0008064D1
:10E3B0008093C000EACF08958DE08093C6008091DD
:10E3C000C00086FFFCCF8091C00080648093C000B5
:10E3D0008AE08093C6008091C00086FFFCCF8091C8
:10E3E000C00080648093C00008950F94C2F10F9420
:10E3F000DCF10895FC019081992359F09093C600B7
:10E400008091C00086FFFCCF8091C0008064809323
:10E41000C0003196992379F70895282F982F929567
:10E420009F70892F805D8A3308F0895F8093C600D2
:10E430008091C00086FFFCCF8091C00080648093F3
:10E44000C000822F8F70982F905D9A3308F0995FEB
:10E450009093C6008091C00086FFFCCF8091C000E1
:10E4600080648093C00008959C01FB01853691056E
:10E470001CF46330710594F0C90164E670E00F94F8
:10E480002EFE605D7F4F6093C6008091C00086FFC6
:10E49000FCCF8091C00080648093C0002B30310598
:10E4A00014F43297B4F0C90164E670E00F942EFEC4
:10E4B0006AE070E00F942EFE605D7F4F6093C600AF
:10E4C0008091C00086FFFCCF8091C0008064809363
:10E4D000C000C9016AE070E00F942EFEC0968093E0
:10E4E000C6008091C00086FFFCCF8091C000806490
:10E4F0008093C00008951F93182F8EE692EE60E07F
:10E500000F94C2F11093C6008091C00086FFFCCF2B
:10E510008091C00080648093C0000F94DCF11F9153
:10E5200008952F923F924F925F926F927F928F92B7
:10E530009F92AF92BF92CF92DF92EF92FF920F9392
:10E540001F93DF93CF93CDB7DEB762970FB6F894E2
:10E55000DEBF0FBECDBF382E622ECA01DB015C01CB
:10E560006D01772420E2222E2E010894411C511CBB
:10E570008BC081E0A81680E0B80681E0C80680E084
:10E58000D80628F0C601AA27BB270F940DF2BB2797
:10E59000AD2D9C2D8B2D0F940DF28A2D0F940DF225
:10E5A0002092C6008091C00086FFFCCF8091C00001
:10E5B00080648093C0009DE29093C6008091C0006B
:10E5C00086FFFCCF8091C00080648093C0002092C1
:10E5D000C6008091C00086FFFCCF8091C00080649F
:10E5E0008093C00019828601750188249924A1E0D6
:10E5F0003A1651F03A1620F0B2E03B1661F409C029
:10E600000BBFF701779007C0C7010F9477FE782EF4
:10E6100002C0F7017080872D0F940DF22092C60082
:10E620008091C00086FFFCCF8091C0008064809301
:10E63000C000872D8052F401EF70F0708F3520F408
:10E64000E40DF51D708204C0E40DF51D8EE280839B
:10E650000894E11CF11C011D111D0894811C911CE2
:10E6600090E18916910409F0C2CF80E190E0A0E02A
:10E67000B0E0A80EB91ECA1EDB1E198AC2010F9493
:10E68000FAF10F94DCF16A94662009F072CF629679
:10E690000FB6F894DEBF0FBECDBFCF91DF911F91B3
:10E6A0000F91FF90EF90DF90CF90BF90AF909F9031
:10E6B0008F907F906F905F904F903F902F90089534
:10E6C0002F923F924F925F926F927F928F929F9282
:10E6D000AF92BF92CF92DF92EF92FF920F931F9370
:10E6E000DF93CF93CDB7DEB7CD53D1400FB6F894BB
:10E6F000DEBF0FBECDBF01E20EBF0FEF0DBF94B75F
:10E70000F894A89514BE80916000886180936000A1
:10E7100010926000789493FF05C0E0910002F091A0
:10E7200001021995279A2F9A8091C00082608093E8
:10E73000C00080E18093C40088E18093C1000000A4
:10E74000EE24FF24870144E0A42EB12CCC24DD2448
:10E7500024C0C5010197F1F70894E11CF11C011DCB
:10E76000111D21E2E2162EE4F20620E0020720E06D
:10E77000120718F031E0C32ED12CC801B70127ECE5
:10E780003BE140E050E00F9441FE611571058105C9
:10E79000910519F485B1805885B98091C00087FD35
:10E7A00003C0C114D104A9F2A6014F5F5F4FC25E3E
:10E7B000DE4F59834883CE51D140C25EDE4F8881FF
:10E7C0009981CE51D140019711F00D9410FEC05D9A
:10E7D000DE4F19821882C053D14060E0C15DDE4F28
:10E7E0001882CF52D14088249924C35DDE4F19820C
:10E7F0001882CD52D140C05EDE4F188219821A8233
:10E800001B82C052D140CE5CDE4F188219821A8220
:10E810001B82C253D140EE24FF2487010BBFF701B6
:10E8200007911691C45CDE4F19830883CC53D14005
:10E830000D940BFEC25EDE4F28813981CE51D1404E
:10E840002130310509F52091C600C25EDE4F1982E4
:10E850001882CE51D14022C02F5F3F4F4F4F5F4FA4
:10E86000213082E138078AE7480780E0580780F0C6
:10E87000C45CDE4FE881F981CC53D140EF5FFF4F9C
:10E8800019F0EE27FF27099420E030E040E050E047
:10E890008091C00087FFE0CF2091C600C35DDE4FAE
:10E8A00048815981CD52D1404F5F5F4FC35DDE4FEC
:10E8B00059834883CD52D140213209F063C64A3092
:10E8C000510508F05FC60894811C911C53E0851621
:10E8D000910409F059C600E010E018C081E280936D
:10E8E000C6008091C00086FFFCCF8091C00080648C
:10E8F0008093C0002F5F3F4F2931310579F70F9486
:10E90000DCF10F5F1F4F0530110519F020E030E0FA
:10E91000E5CF10920A0210920B0210920C02109294
:10E920000D02109206021092070210920802109235
:10E930000902109202021092030210920402109235
:10E9400005028FEE90EE60E00F94F5F180E191EE1C
:10E9500060E00F94C2F18091C00087FFFCCF9091DE
:10E96000C600903608F09F759032B8F09093C600BC
:10E970008091C00086FFFCCF8091C00080648093AE
:10E98000C000A0E2A093C6008091C00086FFFCCF2B
:10E990008091C00080648093C000983409F4D7C18E
:10E9A0009934B8F4923409F459C1933458F490333B
:10E9B00019F1903308F4E3C59F33A1F1903409F0C5
:10E9C000DEC5BDC0953409F470C1963409F0D7C5D1
:10E9D00098C1923509F42BC2933538F49C3409F46C
:10E9E000F5C1913509F0CBC518C2963509F445C279
:10E9F000993509F0C4C567C483E792EE62E00F94CD
:10EA0000F5F110920602109207021092080210927D
:10EA1000090210920A0210920B0210920C0210923C
:10EA20000D0213C18FE792EE62E00F94F5F18FEEC5
:10EA300090EE60E00F94F5F181E291EE60E00F94CA
:10EA4000C2F187EB91EE60E00F94F5F180E391EE77
:10EA500060E00F94C2F184EE90EE60E00F94F5F167
:10EA60008FE391EE60E00F94C2F186E090E061E008
:10EA700070E00F9434F20F94DCF18DE591EE60E0DC
:10EA80000F94C2F189EC91EE60E00F94F5F18EE401
:10EA900091EE60E00F94C2F183EC91EE60E00F9490
:10EAA000F5F18CE691EE60E00F94C2F18EE10F94E7
:10EAB0000DF288E90F940DF281E00F940DF20F949E
:10EAC000DCF18BE791EE60E00F94C2F119E0E0E039
:10EAD000F0E010935700E4918E2F0F940DF20F94F5
:10EAE000DCF18AE891EE60E00F94C2F1E3E0F0E03F
:10EAF00010935700E4918E2F0F940DF20F94DCF1D8
:10EB000089E991EE60E00F94C2F1E2E0F0E0109349
:10EB10005700E4918E2F0F940DF20F94DCF188EAE8
:10EB200091EE60E00F94C2F1E1E0F0E01093570045
:10EB30001491812F0F940DF20F94DCF107CF8BE825
:10EB400092EE62E00F94F5F18BE492EE60E00F94A8
:10EB5000F5F10F94DCF100E010E019C0C8016F2D51
:10EB60000F947FFEFF2031F489E492EE60E00F9471
:10EB7000C2F10BC0F092C6008091C00086FFFCCFAE
:10EB80008091C00080648093C0000F5F1F4FC80158
:10EB900081519F41A0E0B0E0ABBFFC01F790BAE229
:10EBA000FB1621F0E2E000301E07C1F60F94DCF105
:10EBB0000F94DCF187E592EE60E00F94F5F10F948D
:10EBC000DCF1CC24DD2400E010E01EC0C8010F946D
:10EBD00077FEF82E882331F489E492EE60E00F94FA
:10EBE000C2F10BC08093C6008091C00086FFFCCFAD
:10EBF0008091C00080648093C000FE1419F00894D6
:10EC0000C11CD11C0F5F1F4FC80181519F41A0E063
:10EC1000B0E0ABBFFC01E790FAE2EF1621F022E092
:10EC20000030120799F60F94DCF10F94DCF182E6C4
:10EC300092EE60E00F94C2F1C60161E070E00F94C3
:10EC400034F20F94DCF10F94DCF110920202109276
:10EC50000302109204021092050278CE89E992EE26
:10EC600062E00F94F5F1279A2F9A16C02F9880E052
:10EC700090E0E0EDF7E03197F1F7019684369105E9
:10EC8000C1F72F9A80E090E0E0EDF7E03197F1F7DF
:10EC9000019684369105C1F78091C00087FFE6CFC9
:10ECA0008091C00087FFFCCF64C485EA92EE62E0E9
:10ECB0000F94F5F140910202509103026091040219
:10ECC0007091050281E020E10F9491F2809102029F
:10ECD00090910302A0910402B091050280509F4FD1
:10ECE000AF4FBF4F8093020290930302A0930402A0
:10ECF000B093050280509041A040B04008F426CE69
:10ED0000A4CF83EB92EE62E00F94F5F140910602FE
:10ED100050910702609108027091090280E020E1A1
:10ED20000F9491F28091060290910702A09108023F
:10ED3000B091090280509F4FAF4FBF4F80930602A2
:10ED400090930702A0930802B0930902FFCD80ECD4
:10ED500092EE62E00F94F5F183E792EE60E00F949B
:10ED6000F5F18FE792EE60E00F94F5F18BE892EE0B
:10ED700060E00F94F5F189E992EE60E00F94F5F10F
:10ED800085EA92EE60E00F94F5F183EB92EE60E09D
:10ED90000F94F5F180EC92EE60E00F94F5F187ECC2
:10EDA00092EE60E00F94F5F188ED92EE60E00F9442
:10EDB000F5F18FED92EE60E00F94F5F18AEE92EEB0
:10EDC00060E00F94F5F183E093EEBDCD87EC92EE19
:10EDD00062E00F94F5F181E40F947BF282E40F94EA
:10EDE0007BF283E40F947BF284E40F947BF285E45E
:10EDF0000F947BF286E40F947BF287E40F947BF20E
:10EE000088E40F947BF28AE40F947BF28BE40F94F6
:10EE10007BF28CE40F947BF299CD88ED92EE62E068
:10EE20000F94F5F1772473948824992409C48FED05
:10EE300092EE62E00F94F5F140910A0250910B02BC
:10EE400060910C0270910D0282E020E10F9491F22A
:10EE500080910A0290910B02A0910C02B0910D02D8
:10EE600080509F4FAF4FBF4F80930A0290930B0289
:10EE7000A0930C02B0930D0269CD8AEE92EE62E08F
:10EE80000F94F5F184EE90EE60E00F94F5F18FECC5
:10EE900091EE60E00F94F5F1662477244301CC5D98
:10EEA000DE4F19821882C452D140D401C301B695F5
:10EEB000A79597958795CA5DDE4F88839983AA8326
:10EEC000BB83C652D140CC5DDE4FA881B981C4520C
:10EED000D1401196CC5DDE4FB983A883C452D14096
:10EEE000CD0162E070E00F9434F2B0E2B093C6005E
:10EEF0008091C00086FFFCCF8091C0008064809329
:10EF0000C000EDE2E093C6008091C00086FFFCCF18
:10EF10008091C00080648093C000F0E2F093C6004E
:10EF20008091C00086FFFCCF8091C00080648093F8
:10EF3000C000CA5DDE4FE880F9800A811B81C6529D
:10EF4000D140BB27A12F902F8F2D0F940DF2CA5DBA
:10EF5000DE4F8881C652D1400F940DF2B0E2FB2EF5
:10EF6000F092C6008091C00086FFFCCF8091C00067
:10EF700080648093C0000DE30093C6008091C000C0
:10EF800086FFFCCF8091C00080648093C00010E2B7
:10EF90001093C6008091C00086FFFCCF8091C00016
:10EFA00080648093C0008BBEF3012791C65DDE4F65
:10EFB0002883CA52D140A22EBB24CC24DD2408943D
:10EFC000611C711C811C911C8BBEF3018791282E42
:10EFD0003324442455240894611C711C811C911C09
:10EFE0008BBEF3013791C55DDE4F3883CB52D140E4
:10EFF0000894611C711C811C911C8BBEF30147910C
:10F00000C45DDE4F4883CC52D140ADEFEA2EAFEF66
:10F01000FA2EAFEF0A2FAFEF1A2F6E0C7F1C801E57
:10F02000911E142D032DF22CEE24EA0CFB1C0C1D5A
:10F030001D1D0F940DF220E22093C6008091C000A8
:10F0400086FFFCCF8091C00080648093C000C65DC5
:10F05000DE4F8881CA52D1400F940DF230E23093D6
:10F06000C6008091C00086FFFCCF8091C000806404
:10F070008093C000C45DDE4F8881CC52D1400F9494
:10F080000DF240E24093C6008091C00086FFFCCFA5
:10F090008091C00080648093C000C55DDE4F888190
:10F0A000CB52D1400F940DF250E25093C6008091A4
:10F0B000C00086FFFCCF8091C00080648093C000B8
:10F0C0008FEFE8168FEFF80680E0080780E018075A
:10F0D00031F484E092EE60E00F94C2F1DFC0D80119
:10F0E000C7018070907CA070B0708050904CA040A0
:10F0F000B040D1F52FEF3FE340E050E0E222F322B1
:10F1000004231523CA5DDE4FA880B980CA80DB8046
:10F11000C652D140AE0CBF1CC01ED11EAA0CBB1CD7
:10F12000CC1CDD1C8EE092EE60E00F94C2F1BB2798
:10F13000A12F902F8F2D0F940DF28E2D0F940DF285
:10F1400030E23093C6008091C00086FFFCCF8091F2
:10F15000C00080648093C0004EE34093C60080915D
:10F16000C00086FFFCCF87C08EE09EEFA0E0B0E03D
:10F17000E822F9220A231B239CE0E91694E9F90608
:10F1800090E0090790E0190709F088C0C45DDE4FE0
:10F19000A881CC52D140EA2EFF2400E010E0102FCD
:10F1A0000F2DFE2CEE24C55DDE4FB881CB52D14031
:10F1B000EB0EF11C011D111DD601C501817090706F
:10F1C000A070B070DC0199278827E80EF91E0A1F8D
:10F1D0001B1F20EF30E040E050E0A222B322C42207
:10F1E000D52241E1AA0CBB1CCC1CDD1C4A95D1F7F1
:10F1F000EA0CFB1C0C1D1D1D81E090E0A0E0B0E0BE
:10F20000282239224A225B2235E1220C331C441C7D
:10F21000551C3A95D1F7E20CF31C041D151D57013E
:10F220006801AA0CBB1CCC1CDD1C85E192EE60E0E1
:10F230000F94C2F1C801AA27BB270F940DF2BB2778
:10F24000A12F902F8F2D0F940DF28E2D0F940DF274
:10F2500090E29093C6008091C00086FFFCCF809121
:10F26000C00080648093C000AEE3A093C60080918C
:10F27000C00086FFFCCF8091C00080648093C000F6
:10F28000C601AA27BB270F940DF2BB27AD2D9C2DDD
:10F290008B2D0F940DF28A2D0F940DF20F94DCF14B
:10F2A000CC5DDE4FE881F981C452D140F99709F471
:10F2B0004DCBF4E0EF2EF12C012D112D6E0C7F1CA7
:10F2C000801E911EF2CD83E093EE62E00F94F5F183
:10F2D0008AE192EE60E00F94C2F18091C00087FF56
:10F2E000FCCF1091C6001F751093C6008091C0001E
:10F2F00086FFFCCF8091C00080648093C0000F9493
:10F30000DCF1812F81548A3108F036C1163409F4BA
:10F3100095C0173490F4133409F44EC0143430F40B
:10F320001134F1F0123409F01DC130C0143409F465
:10F3300059C0153409F016C16BC01A3409F4C4C0A1
:10F340001B3438F4173409F48FC0183409F00AC19B
:10F35000A1C01B3409F4D2C01C3409F003C1E8C0B9
:10F360008FEF81B90DC082B1809582B980E090E0C5
:10F37000E0EDF7E03197F1F70196883C9105C1F790
:10F380008091C00087FFEFCF12B8EFC08FEF84B934
:10F390000DC085B1809585B980E090E0E0EDF7E0A3
:10F3A0003197F1F70196883C9105C1F78091C00033
:10F3B00087FFEFCF15B8D9C08FEF87B90DC088B1DF
:10F3C000809588B980E090E0E0EDF7E03197F1F7C3
:10F3D0000196883C9105C1F78091C00087FFEFCF6F
:10F3E00018B8C3C08FEF8AB90DC08BB180958BB9A7
:10F3F00080E090E0E0EDF7E03197F1F70196883C8E
:10F400009105C1F78091C00087FFEFCF1BB8ADC059
:10F410008FEF8DB90DC08EB180958EB980E090E0F0
:10F42000E0EDF7E03197F1F70196883C9105C1F7DF
:10F430008091C00087FFEFCF1EB897C08FEF80BBD1
:10F440000DC081B3809581BB80E090E0E0EDF7E0F6
:10F450003197F1F70196883C9105C1F78091C00082
:10F4600087FFEFCF11BA81C08FEF83BB0DC084B38C
:10F47000809584BB80E090E0E0EDF7E03197F1F714
:10F480000196883C9105C1F78091C00087FFEFCFBE
:10F4900014BA6BC08FEF809301010FC080910201FD
:10F4A00080958093020180E090E0E0EDF7E03197F5
:10F4B000F1F70196883C9105C1F78091C00087FF64
:10F4C000EDCF1092020151C08FEF809304010FC065
:10F4D0008091050180958093050180E090E0E0ED4A
:10F4E000F7E03197F1F70196883C9105C1F78091DB
:10F4F000C00087FFEDCF1092050137C08FEF8093DA
:10F5000007010FC08091080180958093080180E079
:10F5100090E0E0EDF7E03197F1F70196883C910536
:10F52000C1F78091C00087FFEDCF109208011DC088
:10F530008FEF80930A010FC080910B01809580931B
:10F540000B0180E090E0E0EDF7E03197F1F70196F4
:10F55000883C9105C1F78091C00087FFEDCF1092E4
:10F560000B0103C085E292EEEEC98091C00087FFD7
:10F57000FCCF8091C600EAC988E392EEE4C98CE131
:10F5800091EEE1C988249924933011F1943028F444
:10F59000913089F09230B8F408C0953061F195301F
:10F5A000F0F0963009F048C043C02B3109F042C951
:10F5B00091E06BE13FC96227C15DDE4F2883CF52E6
:10F5C000D14092E037C9B22FA0E0622793E032C960
:10F5D000822F90E0A82BB92B622794E02BC92E3004
:10F5E00009F039C3622795E0C05DDE4F19821882A9
:10F5F000C053D1401FC9E1E0F0E0EC0FFD1FC05D3A
:10F60000DE4F08811981C053D140E00FF11F2083E4
:10F610000F5F1F4FC05DDE4F19830883C053D14079
:10F6200062270A171B0709F005C9D80196E002C92D
:10F63000261709F010C303C0973009F0FBC87724E0
:10F640009981933109F412C19431C8F4963009F4C8
:10F65000D8C0973050F4923009F406C1933009F4C1
:10F660006DC0913009F059C253C0913109F477C08F
:10F67000923108F0BBC0903109F04FC2F5C098310B
:10F6800009F487C0993150F4953109F4EFC09531F0
:10F6900008F4C6C1963109F040C2C2C19A3109F4DA
:10F6A0006CC09A3108F491C09B3109F45BC09D3164
:10F6B00009F033C29D81903359F48F81882311F46E
:10F6C0009EE11CC0813011F091E018C098E916C08D
:10F6D000892F807591F0903539F4E0E0F0E089E011
:10F6E0008093570094910AC0983539F4E3E0F0E034
:10F6F00089E080935700949101C090E01A821B82A8
:10F700008D818C831D829E831F8227E030E009C299
:10F710001A8288E08B8381E48C8386E58D8382E581
:10F720008E8389E48F8383E5888780E589878FE5E9
:10F730008A8782E38B872BE030E0F3C18A818139AD
:10F7400041F0823941F0803911F48FE005C080E04A
:10F7500003C082E001C08AE01A828B8344C0772410
:10F76000739482C08D81882311F48EE12CC0813086
:10F7700011F081E028C088E926C01A82E1E0F0E0BB
:10F7800089E08093570084918B831C8224E030E0D1
:10F79000C8C18B81803589F48C81883039F4E2E0EE
:10F7A000F0E089E08093570084910DC0E0E0F0E044
:10F7B00089E080935700849106C0E3E0F0E089E09F
:10F7C0008093570084911A82DFCF8D81836C99E0FA
:10F7D000E1E0F0E0082E90935700E89507B600FCB2
:10F7E000FDCF1A821B8223E030E09BC180EC8A832C
:10F7F000CE5CDE4F188219821A821B82C253D1401E
:10F800008EC18A8190E0A0E0B0E0582F44273327D2
:10F8100022278B8190E0A0E0B0E0DC0199278827C7
:10F82000282B392B4A2B5B2B8D8190E0A0E0B0E098
:10F83000282B392B4A2B5B2B8C8190E0A0E0B0E089
:10F84000BA2FA92F982F8827282B392B4A2B5B2BCF
:10F85000220F331F441F551FC05EDE4F288339839C
:10F860004A835B83C052D1401A8259C13A81C95C34
:10F87000DE4F3883C753D140CA5CDE4F1882C6536F
:10F88000D1408B81C82EDD24CA5CDE4F488159816E
:10F89000C653D140C42AD52A933109F082C0CE5C28
:10F8A000DE4F88819981AA81BB81C253D1408050AB
:10F8B000904CA340B04030F583E0CE5CDE4FE88052
:10F8C000F9800A811B81C253D140F70100935B008C
:10F8D00080935700E89507B600FCFDCFCE5CDE4F65
:10F8E000088119812A813B81C253D14000501F4FAA
:10F8F0002F4F3F4FCE5CDE4F088319832A833B8313
:10F90000C253D140C05EDE4F488159816A817B81FC
:10F91000C052D140DE011B9631E08C9111962C91A2
:10F9200011971296C75CDE4F2883C953D140C85C3B
:10F93000DE4F1882C853D14090E0C85CDE4FE881AA
:10F94000F981C853D1408E2B9F2B0C01FA01609393
:10F950005B0030935700E89511244E5F5F4F6F4F67
:10F960007F4F0EEFE02E0FEFF02ECE0CDF1CC114F8
:10F97000D10499F685E0C05EDE4F088119812A81A5
:10F980003B81C052D140F80120935B008093570027
:10F99000E89507B600FCFDCF81E180935700E8951C
:10F9A00035C0C05EDE4F88819981AA81BB81C0527B
:10F9B000D140B695A795979587957C018601ABE0D8
:10F9C000AA2EB12CAC0EBD1E0BC0D5016D915D01F0
:10F9D000C7010F947FFE0894E11CF11C01501040F8
:10F9E0000115110591F7A60160E070E0440F551F65
:10F9F000661F771FC05EDE4FE880F9800A811B8199
:10FA0000C052D1404E0D5F1D601F711F1A82C05E33
:10FA1000DE4F488359836A837B83C052D1407FC0C5
:10FA2000FA80C55CDE4FF882CB53D140C65CDE4F16
:10FA30001882CA53D1408B81C82EDD24C65CDE4FAC
:10FA400008811981CA53D140C02AD12A1A828981DA
:10FA5000BE016D5F7F4F843121F59601C05EDE4FA0
:10FA6000E880F9800A811B81C052D1400BBFF701A9
:10FA700087919691DB018C9311969C936E5F7F4FDB
:10FA8000D801C7010296A11DB11DC05EDE4F88835B
:10FA90009983AA83BB83C052D14022503040F1F6F3
:10FAA00036C0C05EDE4F288139814A815B81C052F9
:10FAB000D1400894C108D108760100E010E0089414
:10FAC000C11CD11C0894E11CF11C011D111DE20E8A
:10FAD000F31E041F151F21BDBB27A52F942F832FB5
:10FAE00082BD2F5F3F4F4F4F5F4FF89A80B5DB01CC
:10FAF0008D93BD012E153F054007510761F7C05E8C
:10FB0000DE4F288339834A835B83C052D1409601FC
:10FB10002D5F3F4FFB01108204C080EC8A8322E0FE
:10FB200030E08BE18093C6008091C00086FFFCCF5F
:10FB30008091C00080648093C000C15DDE4FF88179
:10FB4000CF52D140F093C6008091C00086FFFCCF19
:10FB50008091C00080648093C000432F3093C60022
:10FB60008091C00086FFFCCF8091C00080648093AC
:10FB7000C000922F2093C6008091C00086FFFCCF6A
:10FB80008091C00080648093C0008EE08093C600A6
:10FB90008091C00086FFFCCF8091C000806480937C
:10FBA000C00065E1C15DDE4FE880CF52D1406E25D7
:10FBB00069276427FE01319610C090819093C6009A
:10FBC0008091C00086FFFCCF31968091C000806498
:10FBD0008093C0006927215030402115310569F715
:10FBE0006093C6008091C00086FFFCCF8091C0006A
:10FBF00080648093C00085B1805885B9772081F4F6
:10FC0000C15DDE4F0881CF52D1400F5FC15DDE4F35
:10FC10000883CF52D14090E0A0E0B0E00D941AF4F8
:10FC200027982F9880E090E020ED37E0F901319798
:10FC3000F1F7019684369105C9F700008091C00064
:10FC40008D7F8093C00081E180935700E895EE2777
:10FC5000FF270994FFCF90E00D941AF497FB092E2B
:10FC600007260AD077FD04D02ED006D000201AF443
:10FC7000709561957F4F0895F6F7909581959F4F08
:10FC80000895A1E21A2EAA1BBB1BFD010DC0AA1FDD
:10FC9000BB1FEE1FFF1FA217B307E407F50720F0F5
:10FCA000A21BB30BE40BF50B661F771F881F991F70
:10FCB0001A9469F760957095809590959B01AC01B9
:10FCC000BD01CF010895AA1BBB1B51E107C0AA1FAC
:10FCD000BB1FA617B70710F0A61BB70B881F991FED
:10FCE0005A95A9F780959095BC01CD010895F99991
:10FCF000FECF92BD81BDF89A992780B50895262F31
:10FD0000F999FECF1FBA92BD81BD20BD0FB6F89400
:0EFD1000FA9AF99A0FBE01960895F894FFCF63
:040000033000E000E9
:00000001FF